:100000000C9434000C9451000C9451000C94510049
:100010000C9451000C9451000C9451000C9451001C
:100020000C9451000C9451000C94B2110C94E411F6
:100030000C9451000C9451000C9451000C945100FC
:100040000C9430140C9451000C9451000C945100F9
:100050000C9451000C9451000C9451000C945100DC
:100060000C9451000C94510011241FBECFEFD8E026
:10007000DEBFCDBF11E0A0E0B1E0ECE3FAE202C0E8
:1000800005900D92A630B107D9F713E0A6E0B1E0D4
:1000900001C01D92A538B107E1F70E9453000C94EE
:1000A0001C150C94000080E88093610010926100A0
:1000B00080EC9DE50197F1F70E94CA0E80E062E0B6
:1000C0000E943C0F81E062E00E943C0F0E94B91444
:1000D0000E94460178940E94F50E0E94A2010E949F
:1000E0004214F9CFEF92FF921F93DF93CF93CDB7D6
:1000F000DEB7A0970FB6F894DEBF0FBECDBF8091DC
:10010000700287FD04C08091700285FF72C08FEF7E
:10011000809310028093110282E8898B8DE78A8B8D
:1001200010E081E1E82EF12CEC0EFD1EC7010E94CB
:10013000D813833019F01F5F1431C1F780E060E0FD
:100140000E943C0F81E060E00E943C0F80E062E092
:100150000E943C0F81E062E00E943C0F809170029F
:1001600086FD62C08091700281FF07C080916802A5
:1001700090916902892B09F045C08091700280FF3F
:1001800003C081E0809310028091700282FF0DC055
:1001900082E192E090936B0280936A028091240244
:1001A00090E090936F0380936E038091700283FFC1
:1001B00014C080911002882381F482E080931002A1
:1001C00082E192E090936B0280936A028091240214
:1001D00090E090936F0380936E03A0960FB6F8940F
:1001E000DEBF0FBECDBFCF91DF911F91FF90EF908B
:1001F00008958091700284FD8ACF8091700284FFFF
:10020000ADCF85CFE0917102F0917202808182952D
:1002100086958770853089F0863068F5843009F0DE
:10022000ACCF82E08A830BC081E080931002809380
:10023000110260E00E943C0F95CF84E08A8381E048
:1002400064E00E943C0F4A816091710270917202D9
:100250007E010894E11CF11CC70150E00E940415C6
:1002600010E0C7010E94D813833009F486CF1F5FC6
:100270001431B9F782CF863039F0873009F07DCF5D
:100280008181882309F479CF8A83D9CF86E091E0F0
:100290000E942914109210028FEF80931102109285
:1002A000220210922302109224020895CF93DF932A
:1002B000809111028F3F39F080911002813071F0EE
:1002C000DF91CF9108950E942214892BC9F382E017
:1002D00064E00E943C0FDF91CF9108950E942214A8
:1002E000EC01009769F382E064E00E943C0F888192
:1002F0008295869587708530E9F0863050F086309B
:10030000E9F08730E9F689818823D1F2E82FF0E01F
:1003100005C08430A9F682E0E2E0F0E0109210021D
:100320008093240222E132E0C901BE01AF010E94A4
:100330000415C6CF84E0E4E0F0E0F0CF86E0E6E02C
:10034000F0E0ECCF0E94560108952A98962F9F71F5
:10035000982B9EBD0DB407FEFDCF1EBC0DB407FE4D
:10036000FDCF67FD03C08EB52A9A08951EBC0DB45B
:1003700007FEFDCF8EB52A9A08952A986F71682BD3
:100380006EBD0DB407FEFDCF4EBD0DB407FEFDCF13
:100390002A9A08959C01FB012A988AE38EBD0DB428
:1003A00007FEFDCF2115310559F01EBC0DB407FE27
:1003B000FDCF8EB580832150304011F03196F5CFBE
:1003C0002A9A08959C01FB012A988AE78EBD0DB4F4
:1003D00007FEFDCF2115310549F080818EBD0DB49A
:1003E00007FEFDCF319621503040B9F72A9A089583
:1003F0001F93CF93DF93182FC82FD0E0C076D07013
:100400008091670290E0C817D907B9F080EA6FE1E0
:1004100043E00E94BD01D595C795D595C795D59563
:10042000C795D595C795D595C79580E86FE14C2FB1
:100430000E94BD01107610936702DF91CF911F914A
:1004400008951F93182F0E94F80180E0612F0E94E9
:10045000A5011F9108950F931F93182F062F0E9437
:10046000F80180E4612F402F0E94BD011F910F9180
:100470000895CF92DF92EF92FF920F931F938C011A
:100480006C010894C11CD11C84EEF80160810E94AB
:100490002B0276010894E11CF11C85EEF8016181C4
:1004A0000E942B0287010F5F1F4F82EEF6016181D0
:1004B0000E942B0283EEF70161810E942B0280EEE5
:1004C000F80161810E942B0281EE0F5F1F4FF8013E
:1004D00061810E942B021F910F91FF90EF90DF909E
:1004E000CF9008950F931F93682F84ED0E942B02E5
:1004F00082ED61E00E942B028AEE0E94210280FDC3
:10050000FBCF82ED60E00E942B0288ED0E94210269
:10051000082F10E089ED0E942102282F30E0202BC7
:10052000312BC9011F910F9108950F931F93982F9D
:10053000162F072F84ED692F0E942B0286ED612F65
:100540000E942B0287ED602F0E942B028AEE0E94F0
:10055000210280FDFBCF1F910F910895229A2A9AC4
:100560002D9A259A2498239A249A8CB580618CBD63
:100570008DB581608DBD8CB580648CBD8FEF60E0E2
:100580004FEF0E94BD0180E29EE40197F1F71092C7
:1005900066021092650288E060E00E942B0289E00A
:1005A00060E00E942B028CE060E00E942B028DE054
:1005B00060E00E942B028AE06FEF0E942B028BE02A
:1005C00069E10E942B0284E060E00E942B0285E03A
:1005D0006AE10E942B0280EC6DE00E942B0281EC0C
:1005E00060E00E942B0280E862EC42E30E94BD01C1
:1005F00086EC62E10E942B0287EC6CE00E942B02E9
:1006000084EC62E10E942B028AEC6CE20E942B02D5
:100610008BEC61E00E942B0284EE60E00E942B02D2
:1006200085EE6DE40E942B0282EE66E50E942B02AD
:1006300083EE61E30E942B0280EE60E30E942B02B6
:1006400081EE61E30E942B0288EC6AE00E942B029B
:1006500088E361E80E942B0280E160E071E00E9483
:1006600095028FE10E94F80180E86BE140EC0E9466
:10067000BD0180E86FE144E00E94BD0184E162E4D5
:1006800077E00E949502089508950F931F93CF93EA
:10069000DF938C01EB0101C000008DE10E9421027B
:1006A00082FDFACF80E86FE140E80E94BD0180EA58
:1006B0006FE140E80E94BD0182E060E00E942B02F1
:1006C00083E06AE10E942B0286E06C2F0E942B02DD
:1006D0009E012050364E87E0632F0E942B028AE74E
:1006E00060E040E00E94BD01CE01B8010E94E2013D
:1006F00080E86FE148E00E94BD0101C000008CE18C
:100700000E94210283FFFACFDF91CF911F910F91B9
:1007100008950895CF92DF92EF92FF920F931F9367
:10072000CF93DF938C017B01EA01690180E86FE1DF
:1007300040E80E94BD0180EA6FE140E80E94BD01EF
:1007400082E060E00E942B0283E06AE10E942B02BB
:10075000CE01800F682F86E00E942B029801205066
:10076000364E2C0F3D1F87E0632F0E942B028AE735
:1007700060E040E00E94BD01C801B7010E94E201B3
:100780002097A9F480E86FE148E00E94BD0101C014
:1007900000008CE10E94210283FFFACFDF91CF910C
:1007A0001F910F91FF90EF90DF90CF900895CE01B1
:1007B000B6010E94E201E6CFCF93DF938CE10E9465
:1007C000210286FD06C0C0E0D0E0CE01DF91CF91CE
:1007D000089580E0609165020E942B02609166029C
:1007E00081E00E942B028AE360E00E94A5018093D1
:1007F0006502109266028AE360E00E94A501382F2C
:1008000020E08091650290916602822B932B909359
:100810006602809365028AE360E00E94A501C82F0A
:10082000D0E08AE360E00E94A501382F20E0C22BCF
:10083000D32B8AE360E00E94A5018AE360E00E9476
:10084000A501CE01DF91CF9108959C01CB01B901A3
:100850000E94CA0108958CE0609165020E942B02FB
:10086000609166028DE00E942B0280E86EE140E418
:100870000E94BD01089508950895FC01DA012181C7
:1008800030E0908180E0282B392B30939C0220931C
:100890009D02328120E0838190E0822B932B909304
:1008A0009E0280939F0211962C91119730E09C91AB
:1008B00080E0282B392B3093A0022093A1021296BE
:1008C0003C91129720E013968C9190E0822B932B11
:1008D0009093A2028093A302FB01218130E09081DA
:1008E00080E0282B392B309392022093930232819F
:1008F00020E0838190E0822B932B9093940280934D
:1009000095021092970210929602109299021092FC
:10091000980210929B0210929A0210928E0281E02D
:1009200080932B0208959C018091960290919702EA
:100930008217930791F08091980290919902821703
:100940009307B9F080919A0290919B0282179307C6
:10095000A1F083E080932B02089580E0E0E0F0E0D6
:1009600080932B02EE0FFF1FEA56FD4F118210827B
:10097000089581E0E1E0F0E0F3CF82E0E2E0F0E032
:10098000EFCF9C018091960290919702892B81F084
:100990008091980290919902892BB1F080919A02EE
:1009A00090919B02892BA1F083E080932B02089504
:1009B00080E0E0E0F0E080932B02EE0FFF1FEA56AC
:1009C000FD4F31832083089581E0E1E0F0E0F3CF33
:1009D00082E0E2E0F0E0EFCF282F892F922F0895F8
:1009E000BC01809173029091740208960E94C70A1C
:1009F000E0917302F091740280916C028087809183
:100A00006D02818780916E02828780916F02838759
:100A10000895EF92FF920F931F93CF93DF93C091AE
:100A20007302D09174022AED32E030937202209367
:100A30007102823009F4ADC08901085210408091E2
:100A4000B202853459F01092690210926802DF9167
:100A5000CF911F910F91FF90EF9008954091B402B4
:100A60008091680290916902242F30E0892F9927A4
:100A70002817390769F02091680230916902942F94
:100A800080E03070822B932B9093690280936802F0
:100A90008091B502282F30E0809168029091690220
:100AA00090702817390759F0809168029091690277
:100AB0008070822B932B90936902809368028091BF
:100AC000B80290E08F739070892B09F0BCCF8091B1
:100AD000B902882309F0B7CF2091C2023091C30236
:100AE00080919C0290919D022817390709F0ABCFA5
:100AF0002091C4023091C50280919E0290919F0284
:100B00002817390709F09FCF0E945D0B8F5F9F4F19
:100B100009F099CF8091BB02863009F4E8C1813099
:100B200009F091CF8091C602883009F08CCF1092E5
:100B3000C6028091C8029091C902EFEF873F9E07DD
:100B400008F481C209969093C9028093C80220914B
:100B5000C2023091C3028091BE029091BF02F8019F
:100B6000918B808B358724872091C4023091C502F8
:100B700030932E0220932D028091C0029091C102E9
:100B8000938B828B3787268782E064E00E943C0F3C
:100B90005ECF80912A028F5F80932A02882379F4A6
:100BA000809129028F5F80932902882341F48091EC
:100BB00028028F5F80932802882309F470C0109266
:100BC000690210926802298D273009F460C025302F
:100BD00009F45DC0222309F436CF88899989892BCD
:100BE00009F463C08A8D81508A8F8F5F09F02BCF03
:100BF0003B8D353009F40AC1822F8150823008F4D0
:100C000002C1353008F4EAC080E38A8F3F5F3B8F32
:100C1000822F90E08F7090708430910509F4EDC0C0
:100C2000853091050CF0E3C08130910509F4F8C0DE
:100C3000039709F008CF109269021092680210928F
:100C40006F0310926E0384E0809370020E94720022
:100C500080916A0290916B0290937202809371026C
:100C600080916E0390916F03892B09F4EEC08889FF
:100C70009989009709F4E9C0889690936902809356
:100C8000680202EB12E088E18093D3023AC08A8DB9
:100C90008F5F8A8F883709F0D6CE198ED4CE809197
:100CA00027028F5F809327028ACF2F70233009F0AD
:100CB000CACE109269021092680210926F031092CD
:100CC0006E0388E0809370020E94720080916E0330
:100CD00090916F03892B09F4B6CE8091700285FF45
:100CE000C4C010926F0310926E03198E84E180933A
:100CF000D30288E290E0909369028093680202EB4D
:100D000012E080E5F80180A38885F801848F898549
:100D1000858F8A85868F8B85878F8C85808F8D8543
:100D2000818F8E85828F8F85838F86E081878C81EE
:100D30009D81958B848B8E819F81978B868B8091F3
:100D40009C0290919D029587848780919E0290914C
:100D50009F029787868788819981918B808B8A8172
:100D60009B81938B828B898D84FF33C013A212A247
:100D70008091680290916902F801928380916802E3
:100D800090916902838315A214A20E94640B80953E
:100D90009095F80195A384A385E48093B202118213
:100DA000178216828FEF808780912502909126020C
:100DB000019690932602809325029483858313865F
:100DC00012860E945D0B80959095F801938782872B
:100DD0003ECEF80112A280E183A3CACF83E090E067
:100DE000032E02C0880F991F0A94E2F70ECF8630B7
:100DF000910519F0089709F026CE02EB12E081E187
:100E0000F80181A376CF333009F0FBCE198E80E84C
:100E1000809370020E94720084E18093D30269CFB4
:100E200002EB12E082E1F80181A382E080A784E076
:100E300081A712A682E983A78CE290E090936902D1
:100E40008093680280E680A35FCF8091700281FF6B
:100E5000FACD88E290E0909369028093680202EBF9
:100E600012E080E18093D3024CCF8091700284FF26
:100E70000FC010926F0310926E0381E090E0998B87
:100E8000888B84E0898F1B8E81E18093D30231CFE0
:100E900080916E0390916F03892BD9F0809170023D
:100EA00080FF1BC0198A188A2A893B8980916E03AA
:100EB00090916F032817390720F430936F03209324
:100EC0006E0380916E0390916F03998B888B1B8EBC
:100ED000BFCE198A188A1B8EBBCE88899989009744
:100EE00019F390936F0380936E031B8EB1CE0E9413
:100EF000640B8F5F9F4F09F0A6CD35E7E32E32E0FC
:100F0000F32EE701898D882351F02091C80230919A
:100F1000C9028C819D812817390709F49AC06D9602
:100F200022E0C239D20770F38091D302482F50E0FB
:100F3000CA018F739070029709F461C042FD83CD9E
:100F400084E1F80181A388E290E0909369028093A4
:100F5000680280E580A39091CD028091D102838FB9
:100F6000978F4091CC028091D002828F468F309132
:100F7000CB028091CF02818F358F2091CA022093BE
:100F80002B028091CE02808F248F9F5F978F9923B1
:100F900061F4842F8F5F868F882339F4832F8F5FCE
:100FA000858F882311F42F5F248F2091C602309102
:100FB000C7028091C8029091C902F801958B848B79
:100FC000378B268B2091C2023091C3028091BE02E2
:100FD0009091BF02918B808B358724872091C4022A
:100FE0003091C50230932E0220932D028091C002D1
:100FF0009091C102938B828B37872687B9CE20913F
:10100000C8023091C90230932E0220932D028091A4
:101010009602909197028217930709F466C0809117
:101020009802909199028217930709F45EC080910B
:101030009A0290919B028217930709F456C083E0AD
:1010400080932B027BCF08969093C9028093C802AD
:101050007ECD2091C6023091C7028E819F812817D4
:10106000390709F05CCF2091BE023091BF02888120
:1010700099812817390709F052CF2091C002309189
:10108000C1028A819B812817390709F048CFD09384
:101090007402C0937302109270028091D302482FA1
:1010A00082FDD1C18091D20282958F70880F880F06
:1010B00080932B02209168023091690224513040C4
:1010C000281B3109309369022093680280916802DD
:1010D00090916902892B31F19091CA028885981705
:1010E00091F080E1F80181A304CE10922B0280914F
:1010F0008E02882309F442C1873009F43CC181E0A3
:1011000080932B02A0CC9091CB028985981749F748
:101110009091CC028A85981721F79091CD028B850A
:101120009817F9F644FF06C0688979896115710539
:1011300009F090C1898D482F50E0CA018F709070DE
:101140008530910509F4F3C0863091050CF0DAC0C2
:101150008330910509F44CC08430910534F5019732
:1011600009F071CC8091700280FF6DCC83E0898F93
:1011700080E480937002198A188A809168029091A5
:101180006902892B59F0809170028260809370020D
:1011900080916802909169020E94F00410926F039E
:1011A00010926E030E94720098CD80916802909117
:1011B0006902892B31F080916802909169020E9446
:1011C000F0048091D30280FF94C08091700280FF70
:1011D0008DC087E0898F1A8E198A188A81E090E085
:1011E0000E94F00480E1809370020E94720079CF27
:1011F0008091D30280FF24C088899989892B09F0C6
:1012000022CC809168029091690201960E94F004BC
:1012100080E1809370028091680290916902892B2D
:1012200029F0809170028260809370020E947200A7
:1012300081E090E0998B888B88E0898F1B8EDFCDD1
:1012400085FF1CC09091D80280E02091D90230E047
:10125000282B392B8091710290917202820F931F7B
:10126000909372028093710280916802909169025A
:10127000821B930B909369028093680280916802AD
:1012800090916902892B69F044FD0BC08091700236
:1012900082608093700280916802909169020E943E
:1012A000F0049091D40280E02091D502820F911D2C
:1012B00090932E0280932D022C893D89281739079F
:1012C00010F0892B21F430932E0220932D0280916F
:1012D0002D0290912E029B8B8A8B8091700290E060
:1012E00083709070892B09F4AECB58CF86E0898F3C
:1012F00075CF8091700280FF2AC085E0898F198A9E
:10130000188AA1CB8730910509F4EBCE873091057F
:1013100034F1089709F097CB8091700280FF93CB4E
:10132000198E80E1809370020E9472008CCB8091B4
:10133000680290916902892B31F080916802909146
:1013400069020E94F0048091D30280FD10C0809158
:10135000680290916902892B09F0C3CE74CB809109
:10136000700280FF70CB87E0898F1A8E6CCB87E08C
:10137000898F1A8E33CF81E080932B02F092740212
:10138000E092730283E080938F0280938D0210922B
:101390008B0284E080938C021092900230937A0248
:1013A000209379028091C6029091C70290937C02AB
:1013B00080937B028091BE029091BF02909376024F
:1013C000809375028091C0029091C102909378023F
:1013D0008093770281E080938E0280912702809330
:1013E0008102809128028093820280912902809359
:1013F000830280912A028093840281E090E090939E
:101400008602809385028091CD0280938002809134
:10141000CC0280937F028091CB0280937E028091E8
:10142000CA0280937D0281E090E00E94F004209146
:10143000D202822F90E0807F9070813591050CF070
:1014400058C0E701EFCC198E80E2809370020E94B1
:101450007200F9CACE010C960E94C70A90916C02E4
:101460008091CE02891708F465CE90916D0280912B
:10147000CF02891708F45ECE90916E028091D0025F
:10148000891708F457CE90916F028091D102891785
:1014900008F450CE80916C028C8780916D028D870C
:1014A00080916E028E8780916F028F878B8D88234B
:1014B000D1F42E89988D8A8D981B822F86958695DA
:1014C0008695981B392F320F3E8B8F89282F2695B2
:1014D0002695821B97FD9195890F8F8B36953695B2
:1014E0003695830F888F81E080937002888D8A8F74
:1014F00021CE10922B0222952F70422F50E04550A2
:101500005040440F551F440F551F90912B02292F17
:1015100030E024173507BCF4F901EC55FD4F86A9DE
:1015200080932C02882379F0813069F1823071F048
:10153000E92FF0E0EC55FD4F87A9882321F0890FB2
:1015400080932B02E2CFC5E7D2E06CCC87A9843030
:1015500079F730AD20E081AD90E0822B932B909312
:101560002E0280932D028339910510F082E990E0DC
:10157000909388028093870290938A0280938902D5
:10158000C5E7D2E04FCC9F5F90932B02BECFFC010A
:101590008381860F80936F02272F33278281820FEA
:1015A00080936E02818180936D02808180936C02B2
:1015B00080916E0290E08217930748F480916D024B
:1015C0008F5F80936D0280916D028823F9F0809186
:1015D0006F0290E0707086179707B8F480916E02E2
:1015E0008F5F80936E0280916E02882371F48091E8
:1015F0006D028F5F80936D0280916D02882329F4C4
:1016000080916C028F5F80936C02089580916C02D0
:101610008F5F80936C02DBCFEF92FF920F931F934B
:10162000CF93DF937C016230710508F441C0FC0167
:101630009B01C0E0D0E080819181C80FD91FC817FD
:10164000D90708F4219632962250304022303105D5
:1016500090F7CB010297BC01617070708E7F02968B
:10166000E80EF91E8E016130710541F0C801DF916D
:10167000CF911F910F91FF90EF90089580E0F701B7
:1016800090810E94EC048C010C0F1D1F80E0F7017B
:1016900090810E94EC040817190740F70F5F1F4F55
:1016A000C801DF91CF911F910F91FF90EF900895A6
:1016B000C0E0D0E000E010E0D6CF82EB92E064E141
:1016C00070E00E940C0B08950F931F93CF93DF934C
:1016D00086EC92E064E170E00E940C0B8C0160915A
:1016E000B50270E0685270409091B40280E0680FDB
:1016F000791F80917102909172020E940C0B9C01E3
:10170000200F311F2017310710F42F5F3F4F8091BA
:10171000BE029091BF02280F391F2817390710F415
:101720002F5F3F4F8091C0029091C102280F391F57
:101730002817390710F42F5F3F4F8091C202909114
:10174000C302280F391F2817390710F42F5F3F4FA6
:101750008091C4029091C502E901C80FD91FC81732
:10176000D90708F4219686E090E00E94EC04C80FA7
:10177000D91F86E090E00E94EC04C817D90708F44E
:1017800021968091B50290E044973091B40220E018
:10179000820F931F0E94EC049C012C0F3D1F281701
:1017A000390710F42F5F3F4FC901DF91CF911F918F
:1017B0000F910895809161028F5F80936102109272
:1017C0005F0220E040E05BE0682F70E006C04F5F02
:1017D000242F40935F024430F0F4259FF001112440
:1017E000E15DFD4F8281938120813181822B932B9A
:1017F000892B69F382859B01281B31092837310524
:1018000034F310821182128213824F5F242F40938F
:101810005F02443010F3089580E090E02BE0829F57
:10182000F0011124E15DFD4F1082118212821382BA
:10183000892F8F5F982F80935F02843080F3089503
:101840004091C2025091C30280919C0290919D02EE
:10185000842795272091920230919302822393232B
:10186000892B99F46091C4027091C50280919E0207
:1018700090919F028627972720919402309195029C
:1018800082239323892B09F4C2C08091A0029091F6
:10189000A10290935C0280935B028091A2029091DE
:1018A000A30290935E0280935D0210925F026091AA
:1018B0005B0270915C02A0915D02B0915E02EFE26A
:1018C000F2E030E021E007C0822F8F5F3B96853049
:1018D00089F1322F282FAF01808191816817790714
:1018E00099F782819381A817B90771F730935F0246
:1018F000A4EAB2E0FA01349686E001900D9281509C
:10190000E1F7AAEAB2E0E0E0F1E086E001900D92B2
:101910008150E1F788E090E09093B1028093B002AB
:1019200080916802909169020E969093690280936B
:101930006802089520935F022430D1F684EA92E091
:101940006FEF70E046E050E00E940D15E4ECF2E02D
:1019500086E0DF011D928A95E9F77A97A0E0B1E071
:1019600086E00D9001928150E1F7AAEBB2E0E0E051
:10197000F1E086E001900D928150E1F780915B02E9
:1019800090915C029093CB028093CA0280915D0299
:1019900090915E029093CD028093CC0280919C0244
:1019A00090919D029093C1028093C00280919E020B
:1019B00090919F029093C3028093C20280E091E0D5
:1019C0009093B9028093B8029093B3028093B202CD
:1019D00088E090E09093B5028093B40286E0809313
:1019E000B60284E08093B70288E096E09093B1025B
:1019F0008093B0028AED92E090937202809371021C
:101A00008AE290E09093690280936802089550936F
:101A10005C0240935B0270935E0260935D0245CF6F
:101A2000FF920F931F93CF93DF93EC01062FF72EB6
:101A300010925F02AFE2B2E0FD0140E050E005C06D
:101A40004F5F3B96443031F1542F20813181211575
:101A50003105B1F3628173816115710589F3888164
:101A600099812817390761F78A819B81681779075F
:101A700039F750935F02EF012496802F9F2D9C0130
:101A8000D90186E00D9009928150E1F780916102C1
:101A900082874FC010925F0220E030E001C0322FF9
:101AA000FD018D919C911197892B39F412968D919E
:101AB0009C911397892B09F442C02F5F1B96243009
:101AC00071F7109262021092600210916102A12FD0
:101AD000B0E0E9E3F2E070E060E040E050819D01B9
:101AE000251B3109862F90E0821793071CF4612F84
:101AF000651B742F4F5F3B96443081F770936002F3
:101B00006093620270935F02E0E5F2E08881998160
:101B1000AA81BB81EF0189939993A993B993202F4F
:101B20003F2DC901DC0186E00D9009928150E1F75B
:101B30001287DF91CF911F910F91FF9008953093FD
:101B40005F0210916102E2CF809168029091690278
:101B50000E97909369028093680280919C02909105
:101B60009D022091BE023091BF02822793272091CF
:101B700092023091930282239323892B91F48091D6
:101B80009E0290919F022091C0023091C102822753
:101B90009327209194023091950282239323892BDD
:101BA00009F008958EEB92E06AEA72E00E94100D4F
:101BB000089580916802909169028A9798F0109236
:101BC00069021092680264EA72E08091B802909112
:101BD000B90221E08030920751F08050924009F420
:101BE00073C00895109269021092680208952091BE
:101BF000CA023091CB0280919C0290919D022817DD
:101C0000390779F72091CC023091CD0280919E0264
:101C100090919F022817390721F780E092E0909376
:101C2000B9028093B802DB019096FB01769686E0BC
:101C300001900D928150E1F7AAEBB2E0E0E0F1E013
:101C400086E001900D928150E1F7AAEAB2E0E0E06F
:101C5000F1E086E001900D928150E1F7E4EAF2E0D4
:101C6000DF01909686E00D9001928150E1F780911E
:101C7000C0029091C1029093CB028093CA028091DE
:101C8000C2029091C3029093CD028093CC028091C6
:101C90009C0290919D029093C1028093C00280911A
:101CA0009E0290919F029093C3028093C20288E0AB
:101CB00096E09093B1028093B0028AE290E0909314
:101CC00069028093680208952091CA023091CB0284
:101CD00080919C0290919D022817390709F081CFCD
:101CE0002091CC023091CD0280919E0290919F0272
:101CF0002817390709F075CFCB014C966A5E7F4FE4
:101D00000E94100D089520ED37E0E22FF32F319758
:101D1000F1F78A95D1F70895CF93DF930E94DC0302
:101D2000EC01009781F0893C910558F484EA92E037
:101D3000BE010E9425040E942B048C2FDF91CF91BD
:101D400008950E942B0480E0DF91CF910895809147
:101D5000680290916902C79788F04091680250919B
:101D6000690246535040209171023091720286E31D
:101D700090E064EA72E00E948A030895609168022C
:101D80007091690284EA92E00E94450308950E94DE
:101D9000AE020895219A299A87B1886387B988B1DC
:101DA0008F6388B9109271031092730310927503B8
:101DB000E1EBF0E08081856080830895813051F00F
:101DC000813020F0823059F080E0089586B180950E
:101DD0008170089586B1869580958170089586B149
:101DE00086958695809581700895B89B15C0B89AA0
:101DF00021E030E148E0922F9150E92FF0E0EE0F22
:101E0000FF1FE059FC4F8181823039F08430A1F00E
:101E1000233010F42F5FEFCF089580818F5F808390
:101E20008B3FB0F310829130A1F09130B8F488B1BB
:101E3000842788B92F5FDFCF80818F5F80838D30CB
:101E400038F310829130A9F0913078F4439A2F5FE3
:101E5000D2CF88B1832788B92F5FCDCF9230C1F61A
:101E600088B190E2892788B90895923089F6459A19
:101E70000895449A2F5FBFCFE82F8130A9F08130B9
:101E800048F08230D9F0F0E0EE0FFF1FE059FC4F30
:101E900061830895623089F1633050F5662391F1D2
:101EA000613089F74398EFCF6230F9F06330C0F4C6
:101EB000662351F1613039F74498E5CF623069F01B
:101EC000633030F46623E1F06130E9F64598DBCF0A
:101ED000633009F16430B9F6459810927403D3CF9A
:101EE0006330A1F0643079F6449810927203CBCF3E
:101EF0006330B1F0643039F6439810927003C3CF69
:101F0000459AC1CF439ABFCF449ABDCF88B190E1E3
:101F1000892788B9B8CF88B190E2892788B9B3CF2B
:101F200088B198E0892788B9AECFAF92BF92CF929F
:101F3000DF92EF92FF920F931F93DF93CF93CDB772
:101F4000DEB7A4970FB6F894DEBF0FBECDBF7C01FD
:101F50006B015A0130EC398398EA9A831B8288EC32
:101F60008C833D839E8321E02F83888739879A87DE
:101F700044E64B8788E58C878FEF8D878E878F8728
:101F8000188A898B8A8B8B8B1C8A8D8B8E8B8F8B7F
:101F9000188E398F9A8F1B8E2C8F3D8F9E8F2F8F8F
:101FA00028A339A39AA34BA32CA386B187708530AD
:101FB00009F452C0863078F1863009F469C089810D
:101FC0009A81AB81BC81F70180839183A283B38323
:101FD0008D859E85AF85B889F60180839183A28324
:101FE000B383898D9A8DAB8DBC8DF50180839183F0
:101FF000A283B383A4960FB6F894DEBF0FBECDBF05
:10200000CF91DF911F910F91FF90EF90DF90CF90D4
:10201000BF90AF900895882391F600E010E0C801CA
:102020000E941415F701E00FF11F8083C801049688
:102030000E941415F601E00FF11F8083C801089675
:102040000E941415F501E00FF11F80830F5F1F4FF1
:102050000430110521F7CECF89859A85AB85BC85E3
:10206000F70180839183A283B3838D899E89AF8991
:10207000B88DFB0180839183A283B38389A19AA148
:10208000ABA1BCA1F50180839183A283B383B2CFBE
:102090008D819E81AF81B885F70180839183A28372
:1020A000B38389899A89AB89BC89FB018083918339
:1020B000A283B3838D8D9E8DAF8DB8A1F5018083F2
:1020C0009183A283B38396CF80E090E00895FC01D2
:1020D00080818076803671F0808190E0807690708B
:1020E00095958795959587959595879595958795D8
:1020F0008E5F0895818108952F923F924F925F9253
:102100006F927F928F929F92AF92BF92CF92DF9207
:10211000EF92FF920F931F93DF93CF9300D000D0E5
:102120000F92CDB7DEB75C019C0121503F4F3D833C
:102130002C83F9019081EEEF4E2E512C4A0C5B1C42
:10214000F2018081981709F400C1EA2CB982C12CF0
:1021500071E0D72ECA0CDB1C61E0862E962E8A0C0D
:102160009B1C52E0652E51E0752E6A0C7B1C45E0ED
:10217000242E41E0342E2A0C3B1C95012D5F3E4F4E
:102180003B832A830CC0F4018081F826F082EC8125
:10219000FD819081F2018081981709F4D6C0F50184
:1021A000E90FF11DF080F7FC69C0F30180818823FD
:1021B00009F043C0F082F6013081F3012081832FC2
:1021C00090E0820F911D8F3F9105BCF10EEF031B34
:1021D000F894F2014081EC81FD818081841708F040
:1021E0007EC0842F831BF20180837894EC81FD8173
:1021F0008081481708F066C010E09501200F311F5C
:10220000C9016E2D798150E00E940415F60180818C
:102210009501280F311D8E2D9981B901402F50E075
:102220000E940415EC81FD818081F6019081891B5B
:10223000EC81FD818083F6011082EC81FD8190812B
:102240009F5F9083F60180819E3F18F0EC81FD81B5
:102250001082981BF3018081891709F094CFF40153
:1022600080818F1509F440C0F10180818F5F8083E8
:10227000EC81FD818081F601808385CFF60180812C
:10228000981721F0F10180818F5F8083EC81FD81BF
:102290008081F60180832FEFF40120838F2D90E061
:1022A000807690708036910509F44CC0959587959D
:1022B0009595879595958795959587958E5FF3016B
:1022C000808379CFF6018081481B9501280F311D4D
:1022D0008E2D9981B90150E00E940415A3CF802F63
:1022E000840FF201808381CFF60180819501280F50
:1022F000311DEA81FB8180819181019691838083E8
:10230000EC81FD818081F60180832115310509F47E
:102310003ACFC9010F900F900F900F900F90CF916F
:10232000DF911F910F91FF90EF90DF90CF90BF90C2
:10233000AF909F908F907F906F905F904F903F9065
:102340002F900895F301108278CF20E030E0E1CFA4
:10235000FC018AE091E0DF019C011D922150304098
:10236000E1F708951F920F920FB60F9211248F93E9
:102370009F93EF93FF93EFE6F0E080818F7D808362
:10238000809186009091870080539D4F90937B03AE
:1023900080937A0380917A0390917B0390938900D4
:1023A00080938800B19A80818260808384E08093EA
:1023B0007E0310927F03FF91EF919F918F910F9079
:1023C0000FBE0F901F9018951F920F920FB60F928D
:1023D00011242F933F938F939F93AF93BF93EF93CA
:1023E000FF9380917A0390917B0380529E4F90934C
:1023F0007B0380937A0380917A0390917B0390937F
:1024000089008093880080917F038F5F80937F0392
:1024100080917E038430D9F080917E038330B1F1C6
:1024200080917E03823009F45BC080917E0381300D
:1024300009F445C0FF91EF91BF91AF919F918F91AA
:102440003F912F910F900FBE0F901F901895809184
:102450007F03893008F45DC0B59A80916F00806277
:1024600080936F00189971C0E0917C03F0917D0317
:10247000EB5FFE4F80818F5F808310927F0381E04E
:1024800080937E0380917E03833051F685B123B122
:10249000869590E030E08227932780FF4EC08091A0
:1024A0007F03893008F065C08091790380FD91C079
:1024B000299A80917903869580937903B1CF809191
:1024C0007F03882399F180917F03883308F4B2CF8A
:1024D00010927E0380916F008D7F80936F00AACF52
:1024E00080917F03882379F180917F038F3008F4F6
:1024F0009CCF299810927F0381E080937E03E09126
:102500007C03F0917D03E75FFE4F80818F5F8083C6
:102510008CCF80917903869580937903189B8ACF1D
:102520008091790380688093790384CFB59A8091F4
:102530006F00806280936F007DCF10927F0382E0F6
:1025400080937E036DCF299A70CFE0917C03F09148
:102550007D0390917903DF01A250BF4F8C91E80F6A
:10256000F11D90838F5F8C938E3F08F486CF1C9271
:1025700084CF80917F03893071F1809177038F5FE1
:10258000809377039091770380917803981728F5CB
:1025900010927F03E0918003F09181038091770393
:1025A000E80FF11D808180937903299A809184003E
:1025B0009091850084539E4F90937B0380937A0380
:1025C00080917A0390917B03909389008093880097
:1025D00027CF29986ECF299823CF81E08093760367
:1025E00010927F0380937E031BCF90937D03809393
:1025F0007C032998219A80E880BF10927E03B59AC7
:10260000EFE6F0E0808180628083E1E8F0E08081A5
:10261000887F8160808308951F93CF93DF93EC01BF
:10262000162F0E9467108093780320917803215021
:102630001092770380917703821708F094C09FEF80
:1026400080917703FE01E80FF11D8081982780912A
:1026500077038F5F8093770380917703821780F3EE
:10266000FE01E20FF11D9083F89480917E0381308A
:10267000E9F0789480917E03813059F180917E0356
:10268000882371F4F89480916F008F7D80936F00A0
:10269000B59B2AC080916F00806280936F00789410
:1026A00092E0892FDF91CF911F91089580917F0350
:1026B000612F1933A8F48617E0F210927E038091FF
:1026C0006F008D7F80936F00789480917E038130BE
:1026D000A9F680917F0390E0843118F391E0E1CF77
:1026E00068E3861730F2E9CF299A809184009091AF
:1026F000850084539E4F90937B0380937A0380914F
:102700007A0390917B03909389008093880078945A
:10271000D0938103C09380031092770310927603C5
:1027200088818093790383E080937E0310927F03F6
:10273000B19A80916F00826080936F0080917E03D8
:102740008330E1F380917603882379F0E0917C0374
:10275000F0917D03EA5FFE4F808191810196918324
:10276000808393E09ECF9FEF7BCF80917E0382306A
:1027700011F095E096CF94E094CFDF93CF93CDB74F
:10278000DEB760970FB6F894DEBF0FBECDBF89836A
:102790006A834B83CE010196622F0E940C136096D0
:1027A0000FB6F894DEBF0FBECDBFCF91DF91089575
:1027B000FF920F931F93CF93DF93EC01FF241EE250
:1027C00001E0CE01612F0E940C138330C9F08130EB
:1027D000E9F08230B0F3823011F4002391F71B311D
:1027E00008F01150F39489E1F81651F7E091630273
:1027F000F0916402E85FFE4F80818F5F808386E006
:10280000DF91CF911F910F91FF90089500E0D9CFF4
:10281000DF93CF93CDB7DEB760970FB6F894DEBFE6
:102820000FBECDBF89836A834B83CE0101960E9480
:10283000D81360960FB6F894DEBF0FBECDBFCF9110
:10284000DF91089580916302909164020E947C1050
:10285000089590936402809363020E94F512089594
:102860001F920F920FB60F9211248F93789480913C
:1028700082038F5F809382038F910F900FBE0F9022
:102880001F9018950F931F930E948C0E90E09093C9
:102890006902809368028091680290916902892B95
:1028A00021F5809182038730E8F01092820385E75A
:1028B00092E0909374028093730282E00E94090573
:1028C0008091680290916902892B99F58091830328
:1028D000909184030196909384038093830385569B
:1028E0009140F0F41F910F9108950091B002109162
:1028F000B10280E098E00E94EC0408171907F1F09B
:102900000091B0021091B10286E098E00E94EC04C0
:102910000817190719F1109282031F910F9108955A
:102920000E94DA0B10928403109283031F910F917F
:1029300008950E94200C0E94A70EC8CF0E94A40DEB
:1029400081E00E9409058091680290916902892BBB
:1029500011F30E94200C0E94A70EDDCF0E94D90D1A
:102960008091680290916902892BA9F20E94A70EBA
:10297000D2CFCF92DF92EF92FF920F931F93DF930C
:10298000CF93CDB7DEB72C970FB6F894DEBF0FBE4E
:10299000CDBF95E0E92EF12CEC0EFD1E89E0C82E8E
:1029A000D12CCC0EDD1E8E010F5F1F4FC801B70169
:1029B000A6010E94950F0E94C70EC801B701A6018B
:1029C0000E943D040E940C0C85E19EEA0E94C10415
:1029D00010928203109284031092830383E085BDDA
:1029E000EEE6F0E08081816080832C960FB6F8944B
:1029F000DEBF0FBECDBFCF91DF911F910F91FF9032
:102A0000EF90DF90CF900895FB01DC0102C00190B0
:102A10000D9241505040D8F70895DC0101C06D93EC
:102A200041505040E0F70895F999FECF92BD81BD25
:0C2A3000F89A992780B50895F894FFCF1C
:062A3C00004D563130315F
:00000001FF
